{
  "contractName": "B",
  "abi": [
    {
      "inputs": [],
      "stateMutability": "nonpayable",
      "type": "constructor"
    },
    {
      "inputs": [
        {
          "internalType": "address",
          "name": "",
          "type": "address"
        },
        {
          "internalType": "uint256",
          "name": "",
          "type": "uint256"
        }
      ],
      "name": "deposits",
      "outputs": [
        {
          "internalType": "address",
          "name": "user",
          "type": "address"
        },
        {
          "internalType": "address",
          "name": "token",
          "type": "address"
        },
        {
          "internalType": "uint256",
          "name": "amount",
          "type": "uint256"
        }
      ],
      "stateMutability": "view",
      "type": "function",
      "constant": true
    },
    {
      "inputs": [],
      "name": "myAddr",
      "outputs": [
        {
          "internalType": "address",
          "name": "",
          "type": "address"
        }
      ],
      "stateMutability": "view",
      "type": "function",
      "constant": true
    },
    {
      "inputs": [
        {
          "internalType": "address",
          "name": "m",
          "type": "address"
        }
      ],
      "name": "isContract",
      "outputs": [
        {
          "internalType": "bool",
          "name": "",
          "type": "bool"
        }
      ],
      "stateMutability": "view",
      "type": "function",
      "constant": true
    },
    {
      "inputs": [
        {
          "internalType": "address",
          "name": "_user",
          "type": "address"
        },
        {
          "internalType": "address",
          "name": "_token",
          "type": "address"
        },
        {
          "internalType": "uint256",
          "name": "_amount",
          "type": "uint256"
        }
      ],
      "name": "depositComplete",
      "outputs": [],
      "stateMutability": "nonpayable",
      "type": "function"
    },
    {
      "inputs": [
        {
          "internalType": "string",
          "name": "_update",
          "type": "string"
        },
        {
          "internalType": "address",
          "name": "_newAddress",
          "type": "address"
        }
      ],
      "name": "updateOwnership",
      "outputs": [],
      "stateMutability": "nonpayable",
      "type": "function"
    },
    {
      "inputs": [
        {
          "internalType": "address",
          "name": "_user",
          "type": "address"
        },
        {
          "internalType": "uint256",
          "name": "_index",
          "type": "uint256"
        }
      ],
      "name": "locateDeposit",
      "outputs": [
        {
          "internalType": "address",
          "name": "",
          "type": "address"
        },
        {
          "internalType": "address",
          "name": "",
          "type": "address"
        },
        {
          "internalType": "uint256",
          "name": "",
          "type": "uint256"
        }
      ],
      "stateMutability": "view",
      "type": "function",
      "constant": true
    }
  ],
  "bytecode": "0x6080604052306000806101000a81548173ffffffffffffffffffffffffffffffffffffffff021916908373ffffffffffffffffffffffffffffffffffffffff16021790555034801561005057600080fd5b506000600260006101000a81548173ffffffffffffffffffffffffffffffffffffffff021916908373ffffffffffffffffffffffffffffffffffffffff16021790555033600360006101000a81548173ffffffffffffffffffffffffffffffffffffffff021916908373ffffffffffffffffffffffffffffffffffffffff160217905550610f22806100e36000396000f3fe608060405234801561001057600080fd5b50600436106100625760003560e01c80631627905514610067578063a3ddd69114610097578063d6d68177146100b3578063e665b266146100e5578063e876c00d14610103578063f699edbc1461011f575b600080fd5b610081600480360381019061007c91906108b1565b610151565b60405161008e91906108f9565b60405180910390f35b6100b160048036038101906100ac9190610a5a565b61016a565b005b6100cd60048036038101906100c89190610aec565b6103cb565b6040516100dc93929190610b4a565b60405180910390f35b6100ed610452565b6040516100fa9190610b81565b60405180910390f35b61011d60048036038101906101189190610b9c565b610476565b005b61013960048036038101906101349190610aec565b6106fa565b60405161014893929190610b4a565b60405180910390f35b600080823b905060008163ffffffff1611915050919050565b600260009054906101000a900473ffffffffffffffffffffffffffffffffffffffff1673ffffffffffffffffffffffffffffffffffffffff163373ffffffffffffffffffffffffffffffffffffffff1614806102135750600360009054906101000a900473ffffffffffffffffffffffffffffffffffffffff1673ffffffffffffffffffffffffffffffffffffffff163373ffffffffffffffffffffffffffffffffffffffff16145b610252576040517f08c379a000000000000000000000000000000000000000000000000000000000815260040161024990610c4c565b60405180910390fd5b60405160200161026190610cc3565b60405160208183030381529060405280519060200120826040516020016102889190610d47565b604051602081830303815290604052805190602001201415610332576102ad81610151565b6102ec576040517f08c379a00000000000000000000000000000000000000000000000000000000081526004016102e390610daa565b60405180910390fd5b80600260006101000a81548173ffffffffffffffffffffffffffffffffffffffff021916908373ffffffffffffffffffffffffffffffffffffffff1602179055506103c7565b60405160200161034190610e16565b60405160208183030381529060405280519060200120826040516020016103689190610d47565b6040516020818303038152906040528051906020012014156103c65780600360006101000a81548173ffffffffffffffffffffffffffffffffffffffff021916908373ffffffffffffffffffffffffffffffffffffffff1602179055505b5b5050565b600160205281600052604060002081815481106103e757600080fd5b9060005260206000209060030201600091509150508060000160009054906101000a900473ffffffffffffffffffffffffffffffffffffffff16908060010160009054906101000a900473ffffffffffffffffffffffffffffffffffffffff16908060020154905083565b60008054906101000a900473ffffffffffffffffffffffffffffffffffffffff1681565b600260009054906101000a900473ffffffffffffffffffffffffffffffffffffffff1673ffffffffffffffffffffffffffffffffffffffff163373ffffffffffffffffffffffffffffffffffffffff16148061051f5750600360009054906101000a900473ffffffffffffffffffffffffffffffffffffffff1673ffffffffffffffffffffffffffffffffffffffff163373ffffffffffffffffffffffffffffffffffffffff16145b61055e576040517f08c379a000000000000000000000000000000000000000000000000000000000815260040161055590610c4c565b60405180910390fd5b61056782610151565b6105a6576040517f08c379a000000000000000000000000000000000000000000000000000000000815260040161059d90610e9d565b60405180910390fd5b600060405180606001604052808573ffffffffffffffffffffffffffffffffffffffff1681526020018473ffffffffffffffffffffffffffffffffffffffff168152602001838152509050600160008573ffffffffffffffffffffffffffffffffffffffff1673ffffffffffffffffffffffffffffffffffffffff16815260200190815260200160002081908060018154018082558091505060019003906000526020600020906003020160009091909190915060008201518160000160006101000a81548173ffffffffffffffffffffffffffffffffffffffff021916908373ffffffffffffffffffffffffffffffffffffffff16021790555060208201518160010160006101000a81548173ffffffffffffffffffffffffffffffffffffffff021916908373ffffffffffffffffffffffffffffffffffffffff16021790555060408201518160020155505050505050565b600080600080600160008773ffffffffffffffffffffffffffffffffffffffff1673ffffffffffffffffffffffffffffffffffffffff168152602001908152602001600020858154811061075157610750610ebd565b5b90600052602060002090600302016040518060600160405290816000820160009054906101000a900473ffffffffffffffffffffffffffffffffffffffff1673ffffffffffffffffffffffffffffffffffffffff1673ffffffffffffffffffffffffffffffffffffffff1681526020016001820160009054906101000a900473ffffffffffffffffffffffffffffffffffffffff1673ffffffffffffffffffffffffffffffffffffffff1673ffffffffffffffffffffffffffffffffffffffff1681526020016002820154815250509050806000015181602001518260400151935093509350509250925092565b6000604051905090565b600080fd5b600080fd5b600073ffffffffffffffffffffffffffffffffffffffff82169050919050565b600061087e82610853565b9050919050565b61088e81610873565b811461089957600080fd5b50565b6000813590506108ab81610885565b92915050565b6000602082840312156108c7576108c6610849565b5b60006108d58482850161089c565b91505092915050565b60008115159050919050565b6108f3816108de565b82525050565b600060208201905061090e60008301846108ea565b92915050565b600080fd5b600080fd5b6000601f19601f8301169050919050565b7f4e487b7100000000000000000000000000000000000000000000000000000000600052604160045260246000fd5b6109678261091e565b810181811067ffffffffffffffff821117156109865761098561092f565b5b80604052505050565b600061099961083f565b90506109a5828261095e565b919050565b600067ffffffffffffffff8211156109c5576109c461092f565b5b6109ce8261091e565b9050602081019050919050565b82818337600083830152505050565b60006109fd6109f8846109aa565b61098f565b905082815260208101848484011115610a1957610a18610919565b5b610a248482856109db565b509392505050565b600082601f830112610a4157610a40610914565b5b8135610a518482602086016109ea565b91505092915050565b60008060408385031215610a7157610a70610849565b5b600083013567ffffffffffffffff811115610a8f57610a8e61084e565b5b610a9b85828601610a2c565b9250506020610aac8582860161089c565b9150509250929050565b6000819050919050565b610ac981610ab6565b8114610ad457600080fd5b50565b600081359050610ae681610ac0565b92915050565b60008060408385031215610b0357610b02610849565b5b6000610b118582860161089c565b9250506020610b2285828601610ad7565b9150509250929050565b610b3581610873565b82525050565b610b4481610ab6565b82525050565b6000606082019050610b5f6000830186610b2c565b610b6c6020830185610b2c565b610b796040830184610b3b565b949350505050565b6000602082019050610b966000830184610b2c565b92915050565b600080600060608486031215610bb557610bb4610849565b5b6000610bc38682870161089c565b9350506020610bd48682870161089c565b9250506040610be586828701610ad7565b9150509250925092565b600082825260208201905092915050565b7f4f6e6c792063616c6c61626c652062792061646d696e732e0000000000000000600082015250565b6000610c36601883610bef565b9150610c4182610c00565b602082019050919050565b60006020820190508181036000830152610c6581610c29565b9050919050565b600081905092915050565b7f6100000000000000000000000000000000000000000000000000000000000000600082015250565b6000610cad600183610c6c565b9150610cb882610c77565b600182019050919050565b6000610cce82610ca0565b9150819050919050565b600081519050919050565b60005b83811015610d01578082015181840152602081019050610ce6565b83811115610d10576000848401525b50505050565b6000610d2182610cd8565b610d2b8185610c6c565b9350610d3b818560208601610ce3565b80840191505092915050565b6000610d538284610d16565b915081905092915050565b7f596f752063616e206f6e6c79207377617020746f206120636f6e74726163742e600082015250565b6000610d94602083610bef565b9150610d9f82610d5e565b602082019050919050565b60006020820190508181036000830152610dc381610d87565b9050919050565b7f61646d696e000000000000000000000000000000000000000000000000000000600082015250565b6000610e00600583610c6c565b9150610e0b82610dca565b600582019050919050565b6000610e2182610df3565b9150819050919050565b7f54686520746f6b656e2061646472657373206d757374206265206120636f6e7460008201527f726163742e000000000000000000000000000000000000000000000000000000602082015250565b6000610e87602583610bef565b9150610e9282610e2b565b604082019050919050565b60006020820190508181036000830152610eb681610e7a565b9050919050565b7f4e487b7100000000000000000000000000000000000000000000000000000000600052603260045260246000fdfea26469706673582212206f7cbfa2e514ccf12f7ab2c093f9166e04041ebcd95af3efedafba15c682f5e564736f6c634300080b0033",
  "immutableReferences": {},
  "source": "// SPDX-License-Identifier: MIT\npragma solidity ^0.8.2;\n\nimport \"@openzeppelin/contracts/access/Ownable.sol\";\nimport \"@openzeppelin/contracts/token/ERC20/ERC20.sol\";\n\ncontract A is Ownable {\n\n  address public myAddr = address(this);\n\n  B b;\n\n  /* Starts the B contract with a null address to mitigate hard-coding, just add through the updateContract function. */\n\n  constructor() {\n    b = B(address(0));\n  }\n\n  /* isContract function determines if an address is a contract, which allows prevention of accidentally switching contract A or B to a wallet */\n\n  function isContract(address m) public view returns (bool){\n      uint32 size;\n      assembly {\n        size := extcodesize(m)\n      }\n      return (size > 0);\n  }\n\n  /* Deposit function allows users to deposit ERC20 tokens and notifies contract B to store the data. The user has to approve tokens from the ERC20 contract due to the nature of ERC20 tokens, vs an alternative like ERC777 which provides open approval, eliminating this middle step. */\n\n  function deposit(address _token, uint _amount) public onlyOwner {\n    require(isContract(_token), \"The token address must be a contract.\");\n    ERC20(_token).transferFrom(msg.sender, myAddr, _amount);\n    b.depositComplete(msg.sender, _token, _amount);\n  }\n\n  /* Updates contract B. */\n  \n  function updateContract(address _newContract) public onlyOwner {\n    require(isContract(_newContract), \"You can only swap to a contract.\");\n    b = B(_newContract);\n  }\n}\n\ncontract B {\n\n  address public myAddr = address(this);\n\n  /* OnlyAdmin modifier, allows both contract A and the specified admin (deployer on construction) to write in the onlyAdmin functions */\n\n  modifier onlyAdmin {\n    require(msg.sender == address(a) || msg.sender == admin, \"Only callable by admins.\");\n    _;\n  }\n\n  /* Where deposit info is stored, each user has an array of deposits. */\n\n  mapping(address => Deposit[]) public deposits;\n\n  A a;\n  address admin;\n  \n  /* Starts the A contract with a null address to mitigate hard-coding, just add through the updateOwnership function. */\n\n  constructor() {\n    a = A(address(0));\n    admin = msg.sender;\n  }\n\n  /* Deposit struct. */\n\n  struct Deposit {\n    address user;\n    address token;\n    uint amount;\n  }\n\n  /* isContract function determines if an address is a contract, which allows prevention of accidentally switching contract A or B to a wallet */\n\n  function isContract(address m) public view returns (bool){\n      uint32 size;\n      assembly {\n        size := extcodesize(m)\n      }\n      return (size > 0);\n  }\n\n  /* I opted for a single function with an onlyAdmin role for efficiency because it allows for both the contract A and owner to channel through one function. */\n\n  function depositComplete(address _user, address _token, uint _amount) public onlyAdmin {\n    require(isContract(_token), \"The token address must be a contract.\");\n    Deposit memory _deposit = Deposit(_user, _token, _amount);\n    deposits[_user].push(_deposit);\n  }\n\n  /* Opted for another single function with this that allows for the admin to enter the parameter they want to change, this could also be done with two functions. Keccak allows me to compare the strings which I take in a parameter. */\n\n  function updateOwnership(string memory _update, address _newAddress) public onlyAdmin {\n    if (keccak256(abi.encodePacked(_update)) == keccak256(abi.encodePacked(\"a\"))) {\n      require(isContract(_newAddress), \"You can only swap to a contract.\");\n      a = A(_newAddress);\n    } else if (keccak256(abi.encodePacked(_update)) == keccak256(abi.encodePacked(\"admin\"))) {\n      admin = _newAddress;\n    }\n  }\n\n  /* Deposit lookup function to access deposit data. */\n\n  function locateDeposit(address _user, uint _index) public view returns (address, address, uint) {\n    Deposit memory entry = deposits[_user][_index];\n    return (entry.user, entry.token, entry.amount);\n  }\n}",
  "sourcePath": "/Users/reid/CodingChallenge/contracts/Contracts.sol",
  "compiler": {
    "name": "solc",
    "version": "0.8.11+commit.d7f03943.Emscripten.clang"
  },
  "schemaVersion": "3.4.4",
  "updatedAt": "2022-02-09T21:37:05.948Z",
  "networkType": "ethereum",
  "devdoc": {
    "kind": "dev",
    "methods": {},
    "version": 1
  },
  "userdoc": {
    "kind": "user",
    "methods": {},
    "version": 1
  }
}